:1000000034C0FECFFDCFFCCF9DC2FACFF9CFF8CFE1
:10001000FEC1F6CFF5CFF4CFF3CFF2CFF1CFF0CFD3
:10002000EFCFEECFEDCF6400C80090012003F8FFC2
:10003000FCFFFEFFFFFF0001040508090C0D020391
:100040000102040800001E000500F00000F000009E
:1000500001000200440001009D01460001009E01D4
:100060004800060004004A000000F894EE27ECBBAC
:10007000F1E0FBBFEBBFE5BFF8E1F1BDE1BD8DE015
:10008000A2E0BB27ED938A95E9F780E094E0A0E633
:10009000ED930197E9F7E0E5F0E085919591009700
:1000A00061F0A591B59105901590BF01F001059003
:1000B0000D920197E1F7FB01F0CFEFE5EDBFE4E032
:1000C000EEBFC0E6D1E00DC390D31A9311D4E03057
:1000D00011F4E0E073C0E981FA81309791F0F8946F
:1000E000A5E54CD4789410E0F894A981BA81ED91FB
:1000F000A983BA83AE2F42D478941F5F1830A0F33F
:1001000004C0F894ACEC3AD47894E1E057C06DD3D5
:1001100033D5AC81BD81D8DFE03011F4E0E01AC006
:10012000F894AEEB2BD4789410E020E631E0F8940C
:100130003F932F932F5F3F4F1CD4AF91BF91EC9310
:1001400078941F5F193098F3E0E6F1E051D3A9E00D
:100150008ED4C6D418D52696089547D31A93A9816C
:10016000BA81B2DFE03019F4E1EFF8ED27C0E09199
:100170006401E295EF70E695E3701E2FF894A4E415
:10018000FDD37894E12FA6E2B0E035D3E6D4A6D330
:10019000A981BA81BCDFE03019F4E1EFF8ED0EC0BF
:1001A000F894A6D37894E12FAEE2B0E024D3D1D472
:1001B000A0916001B0916101EA23FB23188123968D
:1001C000089513D32897D6D4E0E0EE83EF83E88731
:1001D000E987AE85BF85C1DF8F01E1EFF8EDE0175C
:1001E000F10721F1E1E0EE839801112332F4EF836E
:1001F000F901E095F09531969F01F901EF70F070EB
:1002000063D4E887F9015ED49F01E0E0E98750E01C
:10021000583060F420FF06C0E52FA1E042D4A98544
:10022000EA0FE987369527955F5FF2CFFE01369694
:10023000DE011A9684E094D4FE013A9684E01FB65B
:10024000F8949FD460960895E4EEE6BFE6B7E078B0
:10025000E9F30895E4E9E6BF0895AA93E881E3B9D4
:10026000E4E8E6BFE6B7E078E9F383C1AA931A931E
:10027000A981A13011F4E4EC01C0E4E8E6BFE6B7DF
:10028000E078E9F313B1E12F188122960895AA933B
:10029000E881E07FB6D20DD4AAE0EA02F001AE2FE9
:1002A000E881EF70EA0F65C1AA93A881ACD2A0E102
:1002B000EA02602DA881ACD2E60F5BC1AED2AEE0FF
:1002C000CCDFA0E0CADFA8E8C8DFC4DF08958DD284
:1002D000A4D2A0E0C2DFBEDFB7DFA1EDBEDFA0D2B7
:1002E000AC85BD85A1D2AA85BB859ED2A885B985DE
:1002F0009BD2AE81BF8198D2AC81BD8195D2AA81BB
:10030000BB81EC93A0E0B2DFAE2FC1DFA881B98141
:10031000EC93A0DF2E960895AA937FD2A0E09DDFF4
:10032000AE8184D2AD8182D2AC8180D2AB817ED2CB
:10033000AA817CD2A9817AD2A88178D28BDF279634
:10034000089577D2A63018F477D2319601C0E0E054
:1003500076D2089571D2309729F4E2E370D268948E
:1003600022F854C0E130A0E0FA0759F4E7E1DE16C4
:1003700020F4ED2D46D2319601C0E0E0DE2E62D2AF
:1003800045C0E230A0E0FA0759F4EBE3AE1620F4E2
:10039000EA2D37D2319601C0E0E0AE2E53D236C0FE
:1003A000E330A0E0FA0719F4BB244CD22FC0E430AC
:1003B000A0E0FA0761F453D2AC3328F4E0919D0138
:1003C00020D2359601C0E0E0E0939D011FC0E530EA
:1003D000A0E0FA0761F446D2AC3328F4E0919E0124
:1003E00010D2359601C0E0E0E0939E010FC0E233E9
:1003F000A0E0FA0721F4E89422F8E8E205C0E83228
:10040000A0E0FA0719F4E0E0E0939A0108952DD2F4
:1004100098990EC0E0919801EF5FE0939801A09148
:100420009801A33021F48DDFE0E0E093980103C050
:10043000E0E0E093980199990EC0E0919901EF5F97
:10044000E0939901A0919901A33021F483DFE0E0CA
:10045000E093990103C0E0E0E0939901E0E0F0E06F
:10046000FDBDECBD71C0E0919A01E03081F4E091F6
:100470009D01A0919F01AE1710F405D208C0F2D1E2
:10048000A13028F0E0E0E0939F01E2E3D8D122FC24
:1004900003C0CFD1A23309F00FC0E0919E01A0911B
:1004A0009F01AE1710F4EFD107C0D9D1A13020F0D1
:1004B000E0E0E0939F01C3D10895992009F041C085
:1004C0002297E2B3E421E983E8B3E721E883E8B3C4
:1004D000E721E8BBE2B3E421E2BBE62D92D1EF567F
:1004E000FE4F8080EAE08E16A0F4E82D8AD1EA5C07
:1004F000FF4FE491A881EA2BE883E62D82D1E05CEE
:10050000FF4FE491A981EA2BE983E881E8BBE98107
:10051000E2BBE2E0E61539F48CD1A03019F089D1C4
:10052000A23309F401C006C020FC02C0C49801C077
:10053000C49A01C0C4986394E3E0E61508F4662405
:100540002296089592D1B9DFE991EFBFF991E9912F
:10055000B991A9919991899179916991F99019909D
:1005600009901895AA93E8814CD13196DF0191D179
:10057000D4D2219608951A93A0916C0144D11E2FD4
:10058000113010F0E12F01C0EAE086D1A0916C019A
:100590003FD185D1E0916B01E03011F0E5E001C081
:1005A000E0E080D1EAE081D1689420F838C01A9365
:1005B00010E021FE1BC010E01A30A8F4A0919101B8
:1005C000D1DF6AD1A0919201CDDF69D1A0919301D1
:1005D000C9DF68D1A0919401C5DF67D1ACE2B1E079
:1005E0007DD11F5FE9CFE89421F819C0AD2D0BD163
:1005F00053D1AD2D0DD153D1AA2D05D153D1AA2D53
:1006000007D1E0939C01A0919B0165D2E0FB21F80A
:10061000E0919C01E0939B01E0919C0146D11991EE
:1006200008950AD1309711F4C2DF5AC0E130A0E03A
:10063000FA0751F43DD1E1E032D1AD2DE4D032D111
:10064000AD2DE6D032D14CC0E230A0E0FA0751F433
:100650002FD1E2E024D1AA2DD6D024D1AA2DD8D0F2
:1006600024D13EC0E330A0E0FA0751F421D1E3E009
:1006700016D1AB2DC8D016D1AB2DCAD016D130C0F3
:10068000E430A0E0FA0751F413D1E4E008D1E7D058
:10069000BAD008D1E4D0BCD008D104C0E530A0E085
:1006A000FA0751F405D1E5E0FAD0DCD0ACD0FAD0AD
:1006B000D9D0AED0FAD014C0E832A0E0FA0759F48D
:1006C000EAE0EAD0EAE0EBD0AB2D9DD0EBD0AB2D49
:1006D0009FD0EBD005C0E233A0E0FA0709F44BDF6E
:1006E000089510E0EFEFE8BBE7BBE7E0E5BBE8EF1C
:1006F000E4BBEFEFE2BBE1BBE0E0E3BFE2BFEFBD95
:10070000E2E0EEBDE0E0EDBDECBDE7BDE6BDEBBD7A
:10071000EABDE9BDE8BDE2BDE5E0E5BDE0E0E4BD80
:10072000E3BDE5BFE4E4E9BFE0E0EAB9E0E8E8B949
:10073000E0E0E0BFE6B9EDB9ECE0E0B9E0EDE2B948
:10074000E4E4E6BFD5D0E0EFEA93ADE6B1E020D136
:100750005E2E7894E1E0A0D0E2E0A1D0E2E0A2D069
:10076000E3E0A3D050929101EAE099D05092930136
:10077000EAE09BD0E0E05E1660F010E0151548F46A
:10078000A9E01A9FF001E359FE4FDF01E6DC1F5F8D
:10079000F5CF94DD8FD020E030E08CD02F5F3F4F3D
:1007A000D901E5E0F0E0B9D1309711F4E1E02E266F
:1007B0005ADED9016ED0B1D1309709F432DFE6E9C3
:1007C000F0E0E217F30761F4E0E0E51538F4ADE698
:1007D000B1E0F7DCA9E6B1E0C3D11FBE20E030E014
:1007E000A4E6B0E07BD0D9CFFFCFBA93AA93089507
:1007F000FA93EA930895F0E0EE0FFF1FEA0FFB1F54
:100800000895F0E00895B0E0EAE0F0E081D10895C5
:10081000BB27EAE0F0E081D1089516DDA0ED1DCD03
:10082000A1E024DDAE2F33CDEC93FACF3DDDAE2F2A
:1008300014CDA0919A010895E0919A01E2CFE0933E
:100840009A010895BA92AA92DA92CA92E091950119
:10085000EA93E0919601EA93A09197015DCDA09172
:100860009D010895A0919E0108950A921A92FA920C
:100870006A937A938A939A93AA93BA93EA93FA9390
:10088000EFB7EA930895E0919F01EF5FE0939F0136
:100890000895EAE0F0E00895E09391010895E0936F
:1008A00092010895E09393010895E09394010895CF
:1008B000E8E0F2CFEBE0F0E09BDFEBDF99DFEDE08B
:1008C000F0E096DFECE0F0E093DFE5E9F1E090DFC7
:1008D000E6E9F1E08DDFA7E9B1E0F9CC109639F057
:1008E00080ED97E00197F1F7A8951197C9F7089562
:1008F000EE27AB98A39A80EC93E00197F1F7A398C9
:1009000085E28A95F1F79B9B08958BEC8A95F1F728
:100910009B9BE1E08CE093E00197F1F70895A39AA7
:1009200085E08A95F1F7A3988DE18A95F1F788948F
:100930009B990894E79585ED8A95F1F70895E894D9
:10094000A39A85E08A95F1F770FDA39883E28A95D2
:10095000F1F79B9903C070FF03C0089570FF0895DD
:1009600088EC8A95F1F7A3988DE08A95F1F7689461
:10097000089568E0D4DF6A95E9F708957A2F68E072
:10098000EE27DDDF26F477956A95D9F7E39508958C
:100990004F935F9311244427012C1124A9DFEE23E8
:1009A00001F1AF93A881EADFAF9151E0501598F4BF
:1009B000B6DFE7FD08C0B3DFE7FD06C03FD08923FF
:1009C00019F4152E01C0ABDF39D0892370E009F08E
:1009D00071E0B5DF1EC0A3DFE7FF0BC0A0DFE7FFBC
:1009E00005C0E42F5F914F9121960895689437D008
:1009F000EFCF95DFE7FF01C003C0501531F0152E92
:100A0000E8942DD077279BDF04C0689428D071E04C
:100A100096DF5395513454F282DFEE1FEE1FE170E2
:100A20001896EC93189743951120D9F259E0EC9160
:100A30001996EC9318975A95D1F7AECFE52FEA9512
:100A40006E2FE695E695E695FF27EA0FFB1F80815E
:100A500091E0677019F0990F6A95FCCF0895EEDF69
:100A60001EF09095892301C0892B80830895EE277D
:100A7000AA2389F08A2F68E1A881B98198E0FD91C5
:100A80007F2F7E27779508F4E627E795F6959A95C8
:100A9000B9F78A9599F722960895F195E195F04076
:100AA0000895EE230E2EEA2F19F0EE0F0A94E9F7BF
:100AB0000895F595E795F595E795F595E795F595FD
:100AC000E7950895F695E795F695E795F695E795F8
:100AD000F695E7950895EA17E1E009F4EE27089501
:100AE000EE23E1E009F0EE2708950024112490E1BF
:100AF000AA0FBB1F001C111C0E1A1F0A18F40E0EA1
:100B00001F1E01C0A1609A9599F7FD01D0010895BB
:100B100012D0EBDF0EF4C1DF0895E894B7FF04C0F4
:100B2000A095B09511966894F7FDB7DFDEDFFD0163
:100B30000EF4B3DF0895E894F7FF02C0AEDF6894C7
:100B4000B7FF06C0A095B095119600F8039400FA7F
:100B500008950590F491E02D0895A591B49108951C
:100B60009927EF93FF9361916D930197E1F7FF91BF
:100B7000EF9108955A934A933A932A931A930A93BA
:100B800008955D814C813B812A81198108810895F6
:00000001FF
