:0A00000034C0FECFFDCFFCCFB4C228
:10000A00FACF28C2F8CFF7CFF6CFF5CFF4CFF3CF98
:10001A00F2CFF1CFF0CFEFCFEECFEDCF6400C80033
:10002A0090012003F8FFFCFFFEFFFFFF000104051B
:10003A0008090C0D02030102040800001E00050055
:10004A00F00000F0000001000200440001009D01E0
:10005A00460001009E014800060004004A00000014
:10006A00F894EE27ECBBF1E0FBBFEBBFE5BFF8E18C
:10007A00F1BDE1BD8DE0A2E0BB27ED938A95E9F7DA
:10008A0080E094E0A0E6ED930197E9F7E0E5F0E07F
:10009A0085919591009761F0A591B591059015907C
:1000AA00BF01F00105900D920197E1F7FB01F0CF36
:1000BA00EFE5EDBFE4E0EEBFC0E6D1E024C3A4D390
:1000CA001A9326D4E03011F4E0E073C0E981FA8192
:1000DA00309791F0F894A5E561D4789410E0F894FB
:1000EA00A981BA81ED91A983BA83AE2F57D47894A6
:1000FA001F5F1830A0F304C0F894ACEC4FD4789486
:10010A00E1E057C081D348D5AC81BD81D8DFE0306A
:10011A0011F4E0E01AC0F894AEEB40D4789410E001
:10012A0020E631E0F8943F932F932F5F3F4F31D46D
:10013A00AF91BF91EC9378941F5F193098F3E0E682
:10014A00F1E065D3A9E0A3D4DBD42DD52696089592
:10015A005BD31A93A981BA81B2DFE03019F4E1EFD7
:10016A00F8ED27C0E0916401E295EF70E695E3703F
:10017A001E2FF894A4E412D47894E12FA6E2B0E0FA
:10018A0049D3FBD4BBD3A981BA81BCDFE03019F4CF
:10019A00E1EFF8ED0EC0F894BBD37894E12FAEE20C
:1001AA00B0E038D3E6D4A0916001B0916101EA23AE
:1001BA00FB2318812396089527D32897EBD4E0E0F0
:1001CA00EE83EF83E887E987AE85BF85C1DF8F01BC
:1001DA00E1EFF8EDE017F10721F1E1E0EE83980194
:1001EA00112332F4EF83F901E095F09531969F01DE
:1001FA00F901EF70F07078D4E887F90173D49F01A0
:10020A00E0E0E98750E0583060F420FF06C0E52FAF
:10021A00A1E057D4A985EA0FE987369527955F5F4C
:10022A00F2CFFE013696DE011A9684E0A9D4FE01C9
:10023A003A9684E01FB6F894B4D460960895E4EE32
:10024A00E6BFE6B7E078E9F30895E4E9E6BF089582
:10025A00AA93E881E3B9E4E8E6BFE6B7E078E9F310
:10026A009AC1AA931A93A981A13011F4E4EC01C0AE
:10027A00E4E8E6BFE6B7E078E9F313B1E12F1881C5
:10028A0022960895AA93E881E07FCAD222D4AAE0EE
:10029A00EA02F001AE2FE881EF70EA0F7CC1AA935F
:1002AA00A881C0D2A0E1EA02602DA881C0D2E60FDF
:1002BA0072C1C2D2AEE0CCDFA0E0CADFA8E8C8DFD4
:1002CA00C4DF0895A1D2B8D2A0E0C2DFBEDFB7DF93
:1002DA00A1EDBEDFB4D2AC85BD85B5D2AA85BB85FA
:1002EA00B2D2A885B985AFD2AE81BF81ACD2AC817A
:1002FA00BD81A9D2AA81BB81EC93A0E0B2DFAE2F67
:10030A00C1DFA881B981EC93A0DF2E960895AA9344
:10031A0093D2A0E09DDFAE8198D2AD8196D2AC8116
:10032A0094D2AB8192D2AA8190D2A9818ED2A8818D
:10033A008CD28BDF279608958BD2A63018F48BD2F5
:10034A00319601C0E0E08AD2089585D2309729F427
:10035A00E2E384D2689422F852C0E130A0E0FA07BE
:10036A0051F4E7E1DE1618F4ED2D7BD201C0E0E08E
:10037A00DE2E7AD244C0E230A0E0FA0751F4EBE371
:10038A00AE1618F4EA2D6DD201C0E0E0AE2E6CD2A2
:10039A0036C0E330A0E0FA0719F4BB2465D22FC0B7
:1003AA00E430A0E0FA0761F46CD2AC3328F4E091AF
:1003BA009D0136D2359601C0E0E0E0939D011FC051
:1003CA00E530A0E0FA0761F45FD2AC3328F4E0919B
:1003DA009E0126D2359601C0E0E0E0939E010FC04F
:1003EA00E233A0E0FA0721F4E89422F8E8E205C033
:1003FA00E832A0E0FA0719F4E0E0E0939A010895E0
:10040A00E0919A01E03081F4E0919D01A0919F0171
:10041A00AE1710F43CD208C037D2A13028F0E0E081
:10042A00E0939F01E2E31AD222FC03C011D2A23365
:10043A0009F00FC0E0919E01A0919F01AE1710F440
:10044A0026D207C01ED2A13020F0E0E0E0939F013F
:10045A0005D2089522D2A091A001BB27E4E1F0E0E1
:10046A006CD3309709F4CCDF98990EC0E0919801CB
:10047A00EF5FE0939801A0919801A33021F45CDF2B
:10048A00E0E0E093980103C0E0E0E09398019999D5
:10049A000EC0E0919901EF5FE0939901A091990153
:1004AA00A33021F452DFE0E0E093990103C0E0E0D9
:1004BA00E0939901C59B02C0C59801C0C59AA09155
:1004CA00A001AF3F11F4E0E003C0E091A001C9D15F
:1004DA00E093A001E0E0F0E0FDBDECBD47C099204B
:1004EA0009F041C02297E2B3E421E983E8B3E721A6
:1004FA00E883E8B3E721E8BBE2B3E421E2BBE62DF7
:10050A008FD1EF56FE4F8080EAE08E16A0F4E82DD8
:10051A0087D1EA5CFF4FE491A881EA2BE883E62DB4
:10052A007FD1E05CFF4FE491A981EA2BE983E8815E
:10053A00E8BBE981E2BBE2E0E61539F489D1A030F3
:10054A0019F086D1A23309F401C006C020FC02C00A
:10055A00C49801C0C49A01C0C4986394E3E0E61544
:10056A0008F466242296089598D1B9DFE991EFBF7D
:10057A00F991E991B991A9919991899179916991A1
:10058A00F990199009901895AA93E8816AD1DF0128
:10059A00EAE0F0E0D2D2219608951A93A0916C0174
:1005AA0041D11E2F113010F0E12F01C0EAE083D1B2
:1005BA00A0916C013CD182D1E0916B01E03011F045
:1005CA00E5E001C0E0E07DD1EAE07ED1689420F860
:1005DA0038C01A9310E021FE1BC010E01A30A8F4AC
:1005EA00A0919101D1DF67D1A0919201CDDF66D1AF
:1005FA00A0919301C9DF65D1A0919401C5DF64D1AF
:10060A00ACE2B1E07BD11F5FE9CFE89421F819C0D1
:10061A00AD2D08D150D1AD2D0AD150D1AA2D02D17C
:10062A0050D1AA2D04D1E0939C01A0919B0163D2E1
:10063A00E0FB21F8E0919C01E0939B01E0919C0191
:10064A0043D11991089507D1309711F4C2DF5AC0E6
:10065A00E130A0E0FA0751F43AD1E1E02FD1AD2D13
:10066A00E1D02FD1AD2DE3D02FD14CC0E230A0E0A4
:10067A00FA0751F42CD1E2E021D1AA2DD3D021D10D
:10068A00AA2DD5D021D13EC0E330A0E0FA0751F41B
:10069A001ED1E3E013D1AB2DC5D013D1AB2DC7D0FA
:1006AA0013D130C0E430A0E0FA0751F410D1E4E0ED
:1006BA0005D1E7D0B7D005D1E4D0B9D005D104C06F
:1006CA00E530A0E0FA0751F402D1E5E0F7D0DCD03A
:1006DA00A9D0F7D0D9D0ABD0F7D014C0E832A0E077
:1006EA00FA0759F4EAE0E7D0EAE0E8D0AB2D9AD06D
:1006FA00E8D0AB2D9CD0E8D005C0E233A0E0FA07E1
:10070A0009F44BDF089510E0EFEFE8BBE7BBE7E041
:10071A00E5BBE8EFE4BBEFEFE2BBE1BBE0E0E3BF40
:10072A00E2BFEFBDE5E0EEBDE0E0EDBDECBDE7BD4B
:10073A00E6BDE1E0EBBDE6E8EABDE0E0E9BDE8BD23
:10074A00E2BDE5E0E5BDE0E0E4BDE3BDE5BFE0E52F
:10075A00E9BFE0E0EAB9E0E8E8B9E0E0E0BFE6B91D
:10076A00EDB9ECE0E0B9E0EDE2B9E4E4E6BFD0D0FF
:10077A00E0EFEA93ADE6B1E01BD15E2E7894E1E0BA
:10078A009AD0E2E09BD0E2E09CD0E3E09DD0509288
:10079A009101EAE093D050929301EAE095D0E0E02B
:1007AA005E1660F010E0151548F4A9E01A9FF001F2
:1007BA00E359FE4FDF01CCDC1F5FF5CF7ADD89D02C
:1007CA0020E030E086D02F5F3F4FD901E5E0F0E02E
:1007DA00B4D1309711F4E1E02E2635DFE6E9F0E0F6
:1007EA00E217F30761F4E0E0E51538F4ADE6B1E0AD
:1007FA00E3DCA9E6B1E0C4D11FBE20E030E0A4E604
:10080A00B0E07CD0DFCFFFCFBA93AA930895FA93D2
:10081A00EA930895F0E0EE0FFF1FEA0FFB1F089519
:10082A00F0E00895B0E0EAE0F0E082D10895BB2755
:10083A00EAE0F0E082D1089502DDA0ED09CDA1E061
:10084A0010DDAE2F1FCDEC93FACF29DDAE2F00CDF0
:10085A00A0919A010895E0919A01E2CFE0939A015A
:10086A000895DEDF31960895BA92AA92DA92CA9270
:10087A00E0919501EA93E0919601EA93A09197019C
:10088A0046CDA0919D010895A0919E010895E09101
:10089A009F01EF5FE0939F0108950A921A92FA92DC
:1008AA006A937A938A939A93AA93BA93EA93FA9356
:1008BA00EFB7EA930895E09391010895E0939201C6
:1008CA000895E09393010895E09394010895E8E070
:1008DA00F2CFEBE0F0E09BDFEAE0F0E098DFEDE05A
:1008EA00F0E095DFECE0F0E092DFE5E9F1E08FDFA0
:1008FA00E6E9F1E08CDFA7E9B1E0E4CC109639F043
:10090A0080ED97E00197F1F7A8951197C9F7089537
:10091A00EE27AB98A39A80EC93E00197F1F7A3989E
:10092A0085E28A95F1F79B9B08958BEC8A95F1F7FE
:10093A009B9BE1E08CE093E00197F1F70895A39A7D
:10094A0085E08A95F1F7A3988DE18A95F1F7889465
:10095A009B990894E79585ED8A95F1F70895E894AF
:10096A00A39A85E08A95F1F770FDA39883E28A95A8
:10097A00F1F79B9903C070FF03C0089570FF0895B3
:10098A0088EC8A95F1F7A3988DE08A95F1F7689437
:10099A00089568E0D4DF6A95E9F708957A2F68E048
:1009AA00EE27DDDF26F477956A95D9F7E395089562
:1009BA004F935F9311244427012C1124A9DFEE23BE
:1009CA0001F1AF93A881EADFAF9151E0501598F495
:1009DA00B6DFE7FD08C0B3DFE7FD06C03FD08923D5
:1009EA0019F4152E01C0ABDF39D0892370E009F064
:1009FA0071E0B5DF1EC0A3DFE7FF0BC0A0DFE7FF92
:100A0A0005C0E42F5F914F9121960895689437D0DD
:100A1A00EFCF95DFE7FF01C003C0501531F0152E67
:100A2A00E8942DD077279BDF04C0689428D071E022
:100A3A0096DF5395513454F282DFEE1FEE1FE170B8
:100A4A001896EC93189743951120D9F259E0EC9136
:100A5A001996EC9318975A95D1F7AECFE52FEA95E8
:100A6A006E2FE695E695E695FF27EA0FFB1F808134
:100A7A0091E0677019F0990F6A95FCCF0895EEDF3F
:100A8A001EF09095892301C0892B80830895EE2753
:100A9A00AA2389F08A2F68E1A881B98198E0FD919B
:100AAA007F2F7E27779508F4E627E795F6959A959E
:100ABA00B9F78A9599F722960895F195E195F0404C
:100ACA000895EE230E2EEA2F19F0EE0F0A94E9F795
:100ADA000895F595E795F595E795F595E795F595D3
:100AEA00E7950895F695E795F695E795F695E795CE
:100AFA00F695E7950895EA17E1E009F4EE270895D7
:100B0A00EE23E1E009F0EE2708950024112490E194
:100B1A00AA0FBB1F001C111C0E1A1F0A18F40E0E76
:100B2A001F1E01C0A1609A9599F7FD01D001089591
:100B3A0012D0EBDF0EF4C1DF0895E894B7FF04C0CA
:100B4A00A095B09511966894F7FDB7DFDEDFFD0139
:100B5A000EF4B3DF0895E894F7FF02C0AEDF68949D
:100B6A00B7FF06C0A095B095119600F8039400FA55
:100B7A0008950590F491E02D0895A591B4910895F2
:100B8A009927EF93FF9361916D930197E1F7FF9195
:100B9A00EF9108955A934A933A932A931A930A9390
:100BAA0008955D814C813B812A81198108810895CC
:00000001FF
