:080000002CC0FECFFDCFFCCFA8
:1000080044C2FACFF9CFF8CFCDC1F6CFF5CFF4CFB0
:10001800F3CFF2CFF1CFF0CFEFCFEECFEDCF64003B
:10002800C80090012003F8FFFCFFFEFFFFFF00015E
:10003800040508090C0D0203010204080000F0F091
:10004800000000000100020044000600060046000F
:100058000000F894EE27ECBBF1E0FBBFEBBFE5BF77
:10006800F8E1F1BDE1BD8DE0A2E0BB27ED938A95F3
:10007800E9F780E094E0A0E6ED930197E9F7ECE476
:10008800F0E085919591009761F0A591B591059063
:100098001590BF01F00105900D920197E1F7FB0162
:1000A800F0CFEFE5EDBFE4E0EEBFC0E6D1E0A2C2DD
:1000B80020D31A938DD3E03011F4E0E073C0E981C6
:1000C800FA81309791F0F894A5E5C8D3789410E0B8
:1000D800F894A981BA81ED91A983BA83AE2FBED3D2
:1000E80078941F5F1830A0F304C0F894ACECB6D332
:1000F8007894E1E057C0FDD2AFD4AC81BD81D8DFA0
:10010800E03011F4E0E01AC0F894AEEBA7D378948D
:1001180010E020E631E0F8943F932F932F5F3F4F94
:1001280098D3AF91BF91EC9378941F5F193098F3EF
:10013800E0E6F1E0E1D2A9E00AD442D494D42696CC
:100148000895D7D21A93A981BA81B2DFE03019F4A1
:10015800E1EFF8ED27C0E0916401E295EF70E695D4
:10016800E3701E2FF894A4E479D37894E12FA6E2E3
:10017800B0E0C5D262D422D3A981BA81BCDFE03015
:1001880019F4E1EFF8ED0EC0F89422D37894E12F3A
:10019800AEE2B0E0B4D24DD4A0916001B09161015B
:1001A800EA23FB23188123960895A3D2289752D4D3
:1001B800E0E0EE83EF83E887E987AE85BF85C1DF9E
:1001C8008F01E1EFF8EDE017F10721F1E1E0EE83AF
:1001D8009801112332F4EF83F901E095F0953196F7
:1001E8009F01F901EF70F070DFD3E887F901DAD3E6
:1001F8009F01E0E0E98750E0583060F420FF06C036
:10020800E52FA1E0BED3A985EA0FE98736952795A2
:100218005F5FF2CFFE013696DE011A9684E010D4B5
:10022800FE013A9684E01FB6F8941BD460960895B0
:10023800E4EEE6BFE6B7E078E9F30895E4E9E6BF5F
:100248000895AA93E881E3B9E4E8E6BFE6B7E07861
:10025800E9F333C1AA931A93A981A13011F4E4EC0C
:1002680001C0E4E8E6BFE6B7E078E9F313B1E12FAF
:10027800188122960895AA93E881E07F46D289D30F
:10028800AAE0EA02F001AE2FE881EF70EA0F15C18B
:10029800AA93A8813CD2A0E1EA02602DA8813CD2B1
:1002A800E60F0BC13ED2AEE0CCDFA0E0CADFA8E883
:1002B800C8DFC4DF08951DD234D2A0E0C2DFBEDF9C
:1002C800B7DFA1EDBEDF30D2AC85BD8531D2AA85BE
:1002D800BB852ED2A885B9852BD2AE81BF8128D205
:1002E800AC81BD8125D2AA81BB81EC93A0E0B2DFAD
:1002F800AE2FC1DFA881B981EC93A0DF2E960895B7
:10030800AA930FD2A0E09DDFAE8114D2AD8112D2A4
:10031800AC8110D2AB810ED2AA810CD2A9810AD2AB
:10032800A88108D28BDF27960895A0919B01A5305C
:1003380018F403D2319601C0E0E0E0939B010895E0
:10034800FCD1309711F4E5E02AC0E130A0E0FA07CB
:1003580059F4E7E1CE1620F4EC2DD7D1319601C03F
:10036800E0E0CE2EEDD11DC0E230A0E0FA0759F44E
:10037800EBE3DE1620F4ED2DC8D1319601C0E0E0A4
:10038800DE2EDED10EC0E330A0E0FA0719F4AA246D
:10039800D7D107C0E530A0E0FA0719F4E0E0E09310
:1003A8009B010895DCD198990EC0E0919901EF5F07
:1003B800E0939901A0919901A33021F4B6DFE0E020
:1003C800E093990103C0E0E0E093990199990EC088
:1003D800E0919A01EF5FE0939A01A0919A01A3300E
:1003E80021F4AEDFE0E0E0939A0103C0E0E0E0939F
:1003F8009A01E0E0F0E0FDBDECBD49C0882009F0BD
:1004080043C02297E2B3E721E983E8B3E621E88312
:10041800E8B3E621E8BBE2B3E721E2BBE92D75D1F9
:10042800EF56FE4FB080EAE0BE16C8F4EB2D6DD152
:10043800EA5CFF4FE491A881EA2BE883E92D65D1B6
:10044800E05CFF4FE491A981EA2BE983E881E8BBEE
:10045800E981E2BBC59B02C0C59801C0C59AE2E02C
:10046800E91521F4A0919B01A03009F006C020FCF9
:1004780002C0C49801C0C49A01C0C4989394E3E030
:10048800E91508F499242296089569D1B7DFE9910E
:10049800EFBFF991E991B991A991999189917991D0
:1004A8006991F990199009901895AA93E8812DD12E
:1004B8003196DF01EAE0F0E0A0D2219608951A9380
:1004C800A0916C0124D11E2F113010F0E12F01C032
:1004D800EAE053D1A0916C011FD152D1E0916B0198
:1004E800E03011F0E5E001C0E0E04DD1EAE04ED1A6
:1004F80038C01A9310E021FE1BC010E01A30A8F48F
:10050800A0919101D2DF39D1A0919201CEDF38D1EB
:10051800A0919301CADF37D1A0919401C6DF36D1EB
:10052800ACE2B1E04BD11F5FE9CFE89421F819C0E4
:10053800AC2DEDD022D1AC2DEFD022D1AD2DE7D00E
:1005480022D1AD2DE9D0E0939D01A0919C0133D239
:10055800E0FB21F8E0919D01E0939C01E0919D0171
:1005680015D119910895E9D0309711F4C2DF41C02F
:10057800E130A0E0FA0759F4E8E0FFD0E1E000D16B
:10058800AC2DC5D000D1AC2DC7D000D132C0E230DF
:10059800A0E0FA0759F4E8E0F0D0E2E0F1D0AD2DA0
:1005A800B6D0F1D0AD2DB8D0F1D023C0E330A0E063
:1005B800FA0759F4E8E0E1D0E3E0E2D0AA2DA7D0A9
:1005C800E2D0AA2DA9D0E2D014C0E430A0E0FA0706
:1005D80059F4EAE0D2D0EAE0D3D0AA2D98D0D3D00B
:1005E800AA2D9AD0D3D005C0E530A0E0FA0709F4C7
:1005F80066DF089510E0EFEFE8BBE7BBE7E0E5BB97
:10060800E8EFE4BBEFEFE2BBE1BBE0E0E3BFE2BF52
:10061800EFBDE2E0EEBDE0E0EDBDECBDE7BDE6BD5F
:10062800EBBDEABDE9BDE8BDE2BDE5E0E5BDE0E062
:10063800E4BDE3BDE5BFE4E4E9BFE0E0EAB9E0E832
:10064800E8B9E0E0E0BFE6B9EDB9ECE0E0B9E0ED2B
:10065800E2B9E4E4E6BFBCD0E0EFEA93ADE6B1E08E
:1006680007D15E2E7894E0E05E1660F010E0151574
:1006780048F4A9E01A9FF001E359FE4FDF0161DD5C
:100688001F5FF5CF50929101EAE07AD05092930122
:10069800EAE07CD007DE7DD020E030E07AD02F5F22
:1006A8003F4FD901E5E0F0E0A8D1309711F4E1E03F
:1006B8002E2659DFA4E6B0E081D0E6E9F0E0E217A3
:1006C800F307A9F4E1E05E1680F0E42DA9E0EA9FC3
:1006D800F001E359FE4FDF0168DDA9E6B1E0B0D1D2
:1006E8001FBE4394451408F0442420E030E0D6CFE0
:1006F800FFCFBA93AA930895FA93EA930895F0E086
:10070800EE0FFF1FEA0FFB1F0895F0E00895B0E019
:10071800EAE0F0E06DD10895BB27EAE0F0E06DD1A2
:10072800089586DDA0ED8DCDA1E094DDAE2FA3CD9B
:10073800EC93FACFADDDAE2F84CDE0919B01E5CFF0
:10074800AA92DA92CA92E0919501EA93E091960111
:10075800EA93E0919701EA93A0919801D1CD0A928A
:100768001A92FA926A937A938A939A93AA93BA936B
:10077800EA93FA93EFB7EA930895E0939101089505
:10078800E09392010895E09393010895E093940112
:100798000895EAE0F0E0B0DFEDE0F0E0ADDFECE096
:1007A800F0E0AADFE5E9F1E0A7DFE6E9F1E0A4DFA0
:1007B800E7E9F1E0A1DFA8E9B1E07DCD109639F0D5
:1007C80080ED97E00197F1F7A8951197C9F708957B
:1007D800EE27AB98A39A80EC93E00197F1F7A398E2
:1007E80085E28A95F1F79B9B08958BEC8A95F1F742
:1007F8009B9BE1E08CE093E00197F1F70895A39AC1
:1008080085E08A95F1F7A3988DE18A95F1F78894A8
:100818009B990894E79585ED8A95F1F70895E894F2
:10082800A39A85E08A95F1F770FDA39883E28A95EB
:10083800F1F79B9903C070FF03C0089570FF0895F6
:1008480088EC8A95F1F7A3988DE08A95F1F768947A
:10085800089568E0D4DF6A95E9F708957A2F68E08B
:10086800EE27DDDF26F477956A95D9F7E3950895A5
:100878004F935F9311244427012C1124A9DFEE2301
:1008880001F1AF93A881EADFAF9151E0501598F4D8
:10089800B6DFE7FD08C0B3DFE7FD06C03FD0892318
:1008A80019F4152E01C0ABDF39D0892370E009F0A7
:1008B80071E0B5DF1EC0A3DFE7FF0BC0A0DFE7FFD5
:1008C80005C0E42F5F914F9121960895689437D021
:1008D800EFCF95DFE7FF01C003C0501531F0152EAB
:1008E800E8942DD077279BDF04C0689428D071E066
:1008F80096DF5395513454F282DFEE1FEE1FE170FC
:100908001896EC93189743951120D9F259E0EC9179
:100918001996EC9318975A95D1F7AECFE52FEA952B
:100928006E2FE695E695E695FF27EA0FFB1F808177
:1009380091E0677019F0990F6A95FCCF0895EEDF82
:100948001EF09095892301C0892B80830895EE2796
:10095800AA2389F08A2F68E1A881B98198E0FD91DE
:100968007F2F7E27779508F4E627E795F6959A95E1
:10097800B9F78A9599F722960895F195E195F0408F
:100988000895EE230E2EEA2F19F0EE0F0A94E9F7D8
:100998000895F595E795F595E795F595E795F59516
:1009A800E7950895F695E795F695E795F695E79511
:1009B800F695E7950895EA17E1E009F4EE2708951A
:1009C800EE23E1E009F0EE2708950024112490E1D8
:1009D800AA0FBB1F001C111C0E1A1F0A18F40E0EBA
:1009E8001F1E01C0A1609A9599F7FD01D0010895D5
:1009F80012D0EBDF0EF4C1DF0895E894B7FF04C00E
:100A0800A095B09511966894F7FDB7DFDEDFFD017C
:100A18000EF4B3DF0895E894F7FF02C0AEDF6894E0
:100A2800B7FF06C0A095B095119600F8039400FA98
:100A380008950590F491E02D0895A591B491089535
:100A48009927EF93FF9361916D930197E1F7FF91D8
:100A5800EF9108955A934A933A932A931A930A93D3
:100A680008955D814C813B812A811981088108950F
:00000001FF
